:020000040800F2
:1000000000100020D9020008D7020008D50200081D
:1000100000000000000000000000000000000000E0
:10002000000000000000000000000000D7020008EF
:100030000000000000000000D7020008D7020008FE
:10004000D5020008D5020008D5020008D502000834
:10005000D5020008D5020008D5020008D502000824
:10006000D5020008D5020008D5020008D502000814
:10007000D5020008D5020008D5020008D502000804
:10008000D5020008D5020008D5020008D5020008F4
:10009000D5020008D5020008D5020008D5020008E4
:1000A000D5020008D5020008D5020008D5020008D4
:1000B000D5020008D5020008D5020008D5020008C4
:1000C0008021902010B5C901C00500F0CFF80400D0
:1000D0008021601E844190208901C00500F0C6F88F
:1000E000431E9841E400800002210443074800F0C9
:1000F000BDF8431E9841400004430121034800F02D
:10010000B5F8431E9841204310BDC0460014004876
:10011000F0B5002585B0484800F0CEF8474800F01B
:10012000CBF8474800F0C8F8464C636820680022C6
:1001300001219BB2013500F09EF80834072DF4D15F
:100140000025414C63682068002201219BB20135E3
:1001500000F091F80834042DF4D100253B4C63687D
:100160002068022200219BB2013500F084F8083497
:10017000042DF4D1FFF7A4FF354B18700023029330
:10018000013303930023019300262F4F9020002179
:10019000C00500F06EF800212E4800F06AF8002536
:1001A0002D4C2E4A335DDB005B19DB00985800288C
:1001B0002AD17B68386899B200F056F8284DC046BD
:1001C000013D002DFBD101360837042EDED1039B03
:1001D000002B22D0019B192B13D11D212A00029B39
:1001E00020005F1CFFB23B1D99426A41D3B21D49FA
:1001F0000393029B3200C91800F0B2F802970195F0
:10020000C2E7019B0133BEE7D3185968013589B2B3
:1002100000F02AF8072DC3D1CBE7FFF751FF0C4BB5
:100220001A788242B0D062782270A2786270E27846
:100230001870A270E070A7E791020000920200001F
:1002400096020000A40A0008440A0008840A000874
:1002500004000020000400480000002004040008FE
:10026000C4090000640A0008816170470069084001
:10027000704741617047F0B585B0019103270021B7
:10028000029203930268C368039C01250C412C422F
:100290000AD03D004C00A540019EAA43AB43029DFD
:1002A000A640A54032432B4301311029ECD1026016
:1002B000C36005B0F0BD0000054B4209D2181F23F2
:1002C00018401E3B834011680B4313607047C046C3
:1002D00000100240FEE7704710B5164B164A17494A
:1002E0008B4218D30021164A934217D38023154A14
:1002F0009B001168144C0B431360144B9C420FD3AA
:10030000134C144B9C420ED3FFF702FF124C134BBD
:100310009C420BD310BD01CA01C3E1E702C3E3E76E
:1003200008CC9847E9E708CC9847EAE708CC984713
:10033000EDE7C04600000020DC0A000808000020AD
:100340000800002014ED00E0DC0A0008DC0A0008C8
:10035000DC0A0008DC0A0008DC0A0008DC0A0008E5
:10036000F0B5C64600B50F2A41D903270D003E005F
:1003700005430C0003002E402F423DD11500103DD7
:100380002D09AC462D01A8468044256867681D608C
:100390005F60A568E7689D60DF6010341F00103360
:1003A0004745F2D165460F230C2401352D0149192B
:1003B00013404519144222D08C59AC5104369C1B71
:1003C000032CF9D80324043B9B0801339B002240F3
:1003D000ED18C918561E002A06D00023CC5C1A005E
:1003E000EC5401339642F9D180BCB846F0BD05000B
:1003F000561E002AF1D1F7E70500561EEDE71A0058
:10040000F6E7C04600000048010000000000004878
:100410000400000000000048200000000000004828
:100420001000000000000048080000000000004824
:1004300002000000000000000000000000000000BA
:100440000000000000000048040000000000004818
:10045000200000000000000000000000000000007C
:10046000000000000000000000000000000000008C
:10047000000000000000000000000000000000007C
:1004800000000000000000480100000000000048DB
:1004900004000000000000481000000000000048B8
:1004A00008000000000000484000000000000000BC
:1004B000000000000000000000000000000000003C
:1004C000000000000000004801000000000000489B
:1004D0000400000000000048200000000000004868
:1004E0001000000000000048400000000000000074
:1004F00000000000000000000000000000000000FC
:100500000000000000000048040000000000004857
:100510002000000000000048020000000000004829
:10052000400000000000000000000000000000008B
:1005300000000000000000000000000000000000BB
:10054000000000000000004801000000000000481A
:1005500020000000000000481000000000000048DB
:100560000200000000000048400000000000000001
:10057000000000000000000000000000000000007B
:1005800000000000000000480100000000000048DA
:10059000200000000000004810000000000000489B
:1005A00008000000000000480200000000000048B1
:1005B00040000000000000000000000000000000FB
:1005C000000000000000004801000000000000489A
:1005D00004000000000000482000000000000000AF
:1005E000000000000000000000000000000000000B
:1005F00000000000000000000000000000000000FB
:100600000000000000000048010000000000004859
:100610000400000000000048200000000000004826
:100620001000000000000048080000000000004822
:100630000200000000000048400000000000000030
:100640000000000000000048010000000000004819
:1006500004000000000000482000000000000048E6
:1006600010000000000000480200000000000048E8
:10067000400000000000000000000000000000003A
:1006800000000000000000480100000000000048D9
:1006900004000000000000482000000000000048A6
:1006A00008000000000000480200000000000048B0
:1006B00040000000000000000000000000000000FA
:1006C000000000000000004820000000000000487A
:1006D0001000000000000048080000000000004872
:1006E0000200000000000048400000000000000080
:1006F00000000000000000000000000000000000FA
:100700000000000000000048010000000000004858
:100710001000000000000048080000000000004831
:1007200002000000000000000000000000000000C7
:1007300000000000000000000000000000000000B9
:100740000000000000000048040000000000004815
:1007500020000000000000481000000000000048D9
:1007600008000000000000484000000000000000F9
:100770000000000000000000000000000000000079
:1007800000000000000000480100000000000048D8
:1007900010000000000000480800000000000048B1
:1007A00002000000000000484000000000000000BF
:1007B0000000000000000000000000000000000039
:1007C0000000000000000048010000000000004898
:1007D000080000000000004802000000000000487F
:1007E00040000000000000000000000000000000C9
:1007F00000000000000000000000000000000000F9
:1008000000000000000000000000000000000000E8
:1008100000000000000000000000000000000000D8
:1008200000000000000000000000000000000000C8
:1008300000000000000000000000000000000000B8
:1008400000000000000000482000000000000048F8
:1008500008000000000000480200000000000048FE
:100860004000000000000000000000000000000048
:100870000000000000000000000000000000000078
:1008800000000000000000480400000000000048D4
:1008900020000000000000480800000000000048A0
:1008A00002000000000000484000000000000000BE
:1008B0000000000000000000000000000000000038
:1008C0000000000000000048040000000000004894
:1008D0002000000000000048100000000000004858
:1008E000020000000000004840000000000000007E
:1008F00000000000000000000000000000000000F8
:100900000000000000000048010000000000004856
:100910002000000000000048100000000000004817
:10092000020000000000004840000000000000003D
:1009300000000000000000000000000000000000B7
:100940000000000000000048040000000000004813
:1009500020000000000000481000000000000048D7
:100960000800000000000048020000000000000035
:100970000000000000000000000000000000000077
:1009800000000000000000480100000000000048D6
:1009900004000000000000480800000000000048BB
:1009A00002000000000000484000000000000000BD
:1009B0000000000000000000000000000000000037
:1009C000000000000000004808000000000000488F
:1009D00040000000000000000000000000000000D7
:1009E0000000000000000000000000000000000007
:1009F00000000000000000000000000000000000F7
:100A00000000000000000048200000000000004836
:100A10000800000000000048400000000000000046
:100A200000000000000000000000000000000000C6
:100A300000000000000000000000000000000000B6
:100A40000000000000000048000400000000004812
:100A50000002000000000048800000000004004880
:100A600002000000101010110A0C120A0D0A1310D7
:100A70001415160E170C00181002000202101010A8
:100A8000101000000014004801000000001400488D
:100A900002000000000000480020000000000048A4
:100AA0000040000000000048010000000000004875
:100AB0000400000000000048200000000000004882
:100AC000100000000000004808000000000000487E
:0C0AD00002000000000000484000000090
:080ADC0010101010FF000000D3
:04000005080002D914
:00000001FF
